S0100000434B2D5241364D352E737265630E
S3150000000020020220E99A000031990000E59A0000DA
S31500000010E59A0000E59A0000E59A0000E59A0000DE
S31500000020000000000000000000000000E59A00004B
S31500000030E59A000000000000E59A0000E59A00003D
S31500000040B98900004D8B00006D8C00004D8D0000BD
S3150000005049810000BD800000D98100002182000096
S3090000006055950000AC
S3150000006400000000A1F60E000C1D0100181D010081
S3150000007403000000301D0100030000000C00000016
S315000000840C000000010000000C000000000000004D
S3150000009400000000000000000000803F0000000097
S315000000A4010000009C000020010000006C370100E4
S315000000B4010000004C3701000102FF003C1D010055
S315000000C40300000004000100D0000020020000002C
S315000000D400000000010000000C0000008837010049
S315000000E4010000008C000020000000000100000058
S315000000F40000000000000000AC0A00000B00000035
S315000001040C0000001D600000C0000020B0020220A8
S3150000011401000000010000000000000000000000D3
S315000001240B00000001000000010000000000803FF9
S31500000134441D0100D824010001000000FFFFFFFF59
S315000001440000000064380100000000000000000008
S31500000154030000000000000010230000D43C01004E
S3150000016420010020340502203006022094050220D6
S315000001743C0502200000000000000000400035009D
S315000001848000000040020000BC0100205002000074
S31500000194BE01002060020000C001002068040000C7
S315000001A4C2010020970400000000000000000000C7
S315000001B4800000004010000080010020500800006C
S315000001C490010020600400009801002068200000CF
S315000001D49C0100209720000000000000070000009A
S315000001E40050FF38FED4FE70FE0CFDA8FD44FCE072
S315000001F40052026700CD03342303A34300000649DB
S31500000204064A064B064C064D064E069706D7065773
S31500000214064E064D064C064B064A865900500028E3
S31500000224C3E300008040000099B40000F1F600002A
S31500000234D401002000000000A007022008080220C4
S31500000244700802200000000000000000000000000A
S315000002540000000000000000000000000000000094
S315000002640000000000000000000000000000000084
S315000002740000000000000000000000000000000074
S315000002880348044B834202D0034B03B11847704717
S31500000298200200202002002000000000064B07492B
S315000002A8C91A891048BF0131491003D0044B0BB154
S315000002B801481847704700BF20020020200200208E
S315000002C80000000010B5064C237843B9FFF7D8FFA5
S315000002D8044B13B10448AFF300800123237010BD0B
S315000002E83C0202200000000084A2000108B5054B6C
S315000002F81BB105490548AFF30080BDE80840FFF784
S31500000308CDBF00BF000000004002022084A2000109
S3150000031803464FF0010C002010B40D4CD960A4FB25
S315000003280242520901EB0211196101EB82015A607E
S31500000338596101EB820102EB420201EB82029860ED
S3150000034883F828C099615A625DF8044B704700BF6C
S31500000358CDCCCCCC704700BF70B58446D0E901043B
S31500000368844215DA4FF0FF354FF0010EDCF80C0029
S315000003782601815100EB0411C1E902234D60DCF826
S3150000038808308CF828E07344CCF80830002070BD9B
S31500000398012070BD8068704710B504460AF03EFD1E
S315000003A8204610BD2DE9F84F0468DFF85090D4F8C0
S315000003B80880D0E90245C84505EB041718D19A46C6
S315000003C843689C4217DA4FF0FF334FEA041B45F89F
S315000003D80B10C7E9022A01228E467B60836880F8E3
S315000003E82820134483600A9B00207B60BDE8F88FB1
S315000003F8C0470028F7D00120BDE8F88F6103000048
S31500000408012A1CDD30B586460D46A0F1040C0CEB1E
S31500000418820C2A4673460024196853F8040F814251
S3150000042806DA012443E90101D2E90001C2E9001014
S31500000438634502F10402EFD1002CEAD130BD7047C2
S31500000448014B0360704700BFD4010100844670B4B5
S31500000458E9B18968481C1CD0DCF8184001EB410159
S31500000468DCF80C5004EB8100416805EB01118E683D
S31500000478B34204DBC9688A4201DC70BC70478068F5
S31500000488411C00EB400004D004EB8000ECE7016A55
S31500000498E2E7002070BC704790F82830002B00F087
S315000004A8CE802DE9F04F82680446002A83B000F01A
S315000004B89C804FF0000084F828002ADD01460FE0F2
S315000004C847F82130636943F82100E368666A2B44DC
S315000004D85B68013146F82030A3680130834216DD97
S315000004E8E368050103EB001676682769B6F1FF3F56
S315000004F85B59E5D1013A47F82230636943F822008F
S31500000508636A43F82060A36801308342E8DC880008
S315000005185A1AD4E9043101441844FFF771FF01223D
S3150000052800214FF0FF33D4F81880C4E90721C8F832
S31500000538083063691B68C8F80430E26802EB0312E6
S315000005485268013208BF606A4FEA830208BF40F862
S315000005582310636A9B58C8F80030A368012B44DD52
S315000005684FF0010908E08846236A8B602562A36874
S3150000057809F101094B4538DD6369E76853F82960D5
S3150000058807EB0613D3F804B03201BA58BBF1FF3FA4
S315000005980092D3E902232BD0636A43F826B0D4E944
S315000005A8062303EB430302EB830142F823B04E60B4
S315000005B8E5696B1CE361D8F800305B45D3DC40463F
S315000005C807E0A36953F8267003EB86035F4533DC1F
S315000005D818468268531C02EB4206F2D185608A608F
S315000005E8A36809F101094B45C6DC03B0BDE8F08FE5
S315000005F800212046FFF72AFF0546CDF804804FF074
S31500000608000BB246DDF8008095B12E68A6EB0B010B
S3150000061888450DDD29462046FFF718FF6968054617
S315000006280901795831448B45B8BF8B46002DECD16A
S315000006385646DDF80480AFE78A60856097E770471D
S3150000064870B50546FFF728FFA868C8B12B6AAC69DC
S3150000065803EB430314EB830313D00020EE6802E098
S3150000066814EB83030CD0D3E900521201B1589A68EF
S315000006782944884238BF084602EB42030132EFD1CB
S3150000068870BD184670BD00BFFFF706BF70B50C46B3
S3150000069805461646FFF700FF002C08DBAB68A342A9
S315000006A805DD6B6A002053F82430336070BD0120E5
S315000006B870BD00BF0120704700207047436B0BB127
S315000006C83C21184710B50FF00FF800BF2DE9F04789
S315000006D8B4B0DDE93C6907460C4624A84946984665
S315000006E8154600F0F3FCDDF890A0AAF10203022BF0
S315000006F800F2E88001230021A26BCDE91033CDE991
S315000007081433CDE91733CDE91C3316921A921E928B
S315000007181993226B6368CDE90B11E16A0F921B925C
S315000007280A93626B23680029CDE91222099303DB39
S3150000073838463B6C98470B9006B136686369BAF140
S31500000748020FD4F81CC0C3F10003D4E9020103D098
S31500000758626B12F0030227D00024CDE921C01F9353
S3150000076823912094002D00F0AD802B68D8F8002046
S31500000778B9F1000F00F0A680029200930496D9F80A
S31500000788003009AA06931BAB059317AB039313AB6B
S3150000079801931FA90FAB0BA804F0AAFC00286DD182
S315000007A8002034B0BDE8F087CDE932010121CDE95A
S315000007B82E22A26ACDE92A3C0E92A26B636A002A0F
S315000007C8CDE93011CDE92C110D9313DD099A1A6084
S315000007D80E9B0A9A1A60A36B8B420BDD099A0D9B36
S315000007E843F821200E9B0A9A43F82120A36B013176
S315000007F89942F3DB002D65D02B68D8F80020B9F1B3
S31500000808000F5FD0029200930496D9F800300DAA23
S3150000081806931BAB059317AB039313AB01932AA956
S315000008280FAB0BA804F09EFC0028B9D01BABCDE992
S31500000838046317AB039313AB0193D9F800300DAAE1
S315000008480693D8F800302AA902932B680BA80093C0
S315000008580FAB3C6904F086FC002203461A491B4884
S31500000868CDE902320090019138464FF48A73184A4E
S315000008781849A047012034B0BDE8F0871BABCDE985
S31500000888046317AB039313AB0193D9F8003009AA95
S315000008980693D8F800301FA902932B680BA800937B
S315000008A80FAB3D6904F024FC034607490A4ACDE923
S315000008B802340092019138464FF49273044A05496E
S315000008C8A847D7E70EF010FF680201008002010072
S315000008D8F80101004C020100940301002DE9F047DC
S315000008E81F4600230125A2B0CDE90B33DDE92A8A8C
S315000008F88B6B0C46149318931C930B6B81460D93C4
S3150000090819934B6B1646CDE910334B68CDE90E5556
S315000009180A930B68C96ACDE912550029CDE9155520
S31500000928CDE91A551795099302DB036C98470B9086
S31500000938B8F1000F01D0D8F80080002563691E952C
S315000009485B421D93E3691F93A3682093E368219391
S31500000958002E44D03368002F41D03A68BAF1000F10
S315000009683DD002920093CDF81080DAF8003009AA3B
S31500000978069319AB059315AB039311AB01931DA908
S315000009880DAB0BA804F072FB10B922B0BDE8F087D6
S3150000099819ABCDE9048315AB039311AB0193DAF8D0
S315000009A8003009AA06933B681DA9029333680BA871
S315000009B800930DABD9F8104004F058FB03460949DB
S315000009C8094A4846CDE90235009201914FF4A673CB
S315000009D8064A0749A047012022B0BDE8F0870EF075
S315000009E883FE00BF6802010098040100F8010100B7
S315000009F84C0201002DE9F04FD1F814A0AFB0BAF1BE
S31500000A08000F00F00181814B0C461A68054600F07C
S31500000A1837FB7F4B21461A680746284600F030FB0D
S31500000A287C4B21461A688046284600F029FB7A4BFB
S31500000A38214681461A68284600F03CFB266904468A
S31500000A48002E00F0E18043462946326A09A800F0E4
S31500000A584FFB3B7A072B00F0BF80092B00F0B180D3
S31500000A68012B40F0B280B9F1000F00F0CB80D9F825
S31500000A7800609AF8001024A800F074FA39460CA809
S31500000A8800F024FB3B68414612A8039300F01EFBC6
S31500000A98B8F1000F00F0B880494618A8D8F80070D9
S31500000AA800F014FB21461EA800F010FB002C00F0F5
S31500000AB8AB801E982368411EDDED2B6A9DED2C6ADE
S31500000AC8129C059300F1A0804FF0010B0023994278
S31500000AD805D01EAA02EB8302526802FB0BFB013308
S31500000AE89842F4D1A31E00F18F802EAA02EB83034D
S31500000AF802EB810153F86CEC51F83C3C9E4540F002
S31500000B0883802EAB03EB8404BBF1000F54F8700C02
S31500000B1853DD00249FED415AA146A446A0467446DB
S31500000B284FEA8E030693059BCDF81CB003EB8E05A2
S31500000B38002C08EB000B37DD039B314603EB8808D6
S31500000B48059B002203EB890E039BCDF8109003EB5F
S31500000B588B0A734600289FED317A0ADDC64607EBF5
S31500000B688209FEEC015AF9EC017AD645A5EEA77A78
S31500000B78F7D176B3D1ED007A77EE877AF4EE676A25
S31500000B88F1EE10FA76FEA77AB4EE676AF1EE10FA7D
S31500000B9848BFF0EE467AE3EC017AAB4201F1040174
S31500000BA80244D7D1DDF81090069B0CF1010C1D44C8
S31500000BB8079BD8469C45A144BAD100202FB0BDE872
S31500000BC8F08F9DF82C30092B12D001202FB0BDE8EC
S31500000BD8F08FF0EE457ACFE743463A463146284647
S31500000BE80194CDF80090FFF779FE2FB0BDE8F08F9D
S31500000BF83A4631462846019409ABCDF80090FFF7EE
S31500000C0865FDDBE74E4634E70EF06EFDA41E0100D7
S31500000C18A01E01009C1E0100981E01000000000095
S31500000C282DE9F04FD1F810A0A3B0BAF1000F00F0EB
S31500000C388381D1F814B00F46BBF1000F00F07C8118
S31500000C488468AD4B05461A68236820469B69984711
S31500000C580646002800F0AF80A84B39461A68236874
S31500000C6820469B6998478046002800F0AD80A44B33
S31500000C7839461A68236820469B699847A14B394626
S31500000C881A6823680590DB692046984707460028B6
S31500000C9800F09D8030783B78834273D1D8F80810ED
S31500000CA811A851F8043B9A00109306930EF018FF0A
S31500000CB8B96817A851F8049B4FEA8902CDF85890ED
S31500000CC80EF00EFF069B013B00F1368122AA02EBCD
S31500000CD88303012253F8443CB9F10100CDE9092206
S31500000CE8089300F12981CAF83430002322A901EBC0
S31500000CF8800151F82CCCCDF82CC0984205D016A905
S31500000D0801EB8301496801FB02F201339945F4D1ED
S31500000D184FF0FF33CAF82C30059BCAF83020CAF8C2
S31500000D2838C09BF8001032782846CDE90083CDE913
S31500000D38027A334600F044F98346F8B93378072B2C
S31500000D4848D0092B65D098F80030122B00F0A880FF
S31500000D582368394620465B6A984723683146204609
S31500000D685B6A9847236841465B6A20469847059B15
S31500000D7823B12368204605995B6A9847584623B0ED
S31500000D88BDE8F08F2E6903F045F90446387803F07C
S31500000D9841F903465C495D4ACDE902430092019157
S31500000DA8284651235A4A5B49B0474FF0010B58462B
S31500000DB823B0BDE8F08F472357492C692846009190
S31500000DC8534A5649A047F0E74A235549F5E74F23C2
S31500000DD85449F2E733697BB93A69002A7FD0CDE9ED
S31500000DE80223514E51492C69702300912846484ADE
S31500000DF84F490196A047D8E7CDE902304A4A4D49FE
S31500000E082C696F23019200912846414A4849A04718
S31500000E18CBE7B1681DA851F8042B1C9292000EF07E
S31500000E285FFEB9F1010F00F08780B9F1040F00F3F6
S31500000E388380B9F1020F57D0DAF834309B0753D1C3
S31500000E48DAF838106B6B890028469847DAF83810B4
S31500000E58CAF824006B6B8900284698470123DAF8FC
S31500000E683020CAF828000C92DAF834200CA8CDE90C
S31500000E780D330F9204F0ACF9814698F80030122B26
S31500000E880FD0B9F1000F7FF763AF49462846EB6BE1
S31500000E980AF12C02984700283FF45AAF83466DE7BB
S31500000EA88146D8F808101DA851F8043B9A00CDE9E8
S31500000EB806321C930EF014FE069B002B19DD012149
S31500000EC8079A1CAB1A4453F8040F9A4200FB01F127
S31500000ED8F9D12846EB6B0AF120029847D1E708A812
S31500000EE804F004F98146C8E708A804F039F98146F0
S31500000EF8C3E70121EDE700BFA41E0100A01E010003
S31500000F089C1E0100981E0100100601002006010023
S31500000F18F8010100F4050100B8050100A00501006B
S31500000F28CC050100E0050100401D0100480601004E
S31500000F384C0201002C0601000EF0D6FB10B5002469
S31500000F4882B000940446044B044A054900F088F828
S31500000F58204602B010BD00BFFD090000290C0000A4
S31500000F68C506000001291CD0032911D09FED116A7E
S31500000F78DFED116ABFEE007AF7EE007A022907FE66
S31500000F88067A47FEA67A80ED077AC0ED087A70479A
S31500000F989FED0A7AF1EE087A80ED077AC0ED087AB5
S31500000FA870479FED067ADFED047A80ED077AC0ED8B
S31500000FB8087A7047FFFF7FFFFFFF7F7F0000000072
S31500000FC8F0B5012A85B00D9E02D1002005B0F0BD0E
S31500000FD81C469FED157B0C9B0F46009302AB0193B5
S31500000FE82146DDE90A2305468DED027B02F0BCFEAB
S31500000FF80028EBD19DED020B3046311D02F09AFE1A
S31500001008226906F10C0372610A9A39461269284662
S31500001018B2610C9A1269F26100930C9A06F1080300
S3150000102802F022FF05B0F0BD00000000000000003D
S31500001038806803689B68184780680368DB681847F8
S31500001048806803681B691847806803685B691847E6
S31500001058806803689B6A184783685869704700BFA9
S3150000106810B4002401600199C0E90334C0E90544BD
S31500001078C0E90744C0E901125DF8044B704700BF98
S3150000108810B5A8B1A1B10968002A8C465CF8044BD2
S315000010980CDBA2420ADA5CF82240002C06DBBDE82B
S315000010A8104001EB8201036D49681847002010BD06
S315000010B80EF01AFB30B129B14968036D01EB8202C3
S315000010C85168184710B50EF00FFB00BF10B504465F
S315000010D851B1496841B151F8042B40F8042B9200EC
S315000010E80EF0FEFC204610BD00232360204610BDEE
S315000010F82DE9F0431D461B7A0446122B87B007D00C
S3150000110895E8070084E80700204607B0BDE8F083A5
S3150000111808461146036C98476F680646D5F800805E
S3150000112817B3394651F8049B01A84FEA89052A46A0
S31500001138CDF800900EF0D4FCB9F1000F14DD6B4623
S3150000114801215A1953F8045F934205FB01F1F9D1BD
S315000011584046324602F094FD09232046C4E900675A
S31500001168237207B0BDE8F0830121F1E70022C0E948
S3150000117800228260704700BF0022C0E90022826018
S31500001188704700BF0022C0E900228260704700BF96
S31500001198012070472DE9F04100F58053D3F8046229
S315000011A8EEB180460F460446002504E00135B542F7
S315000011B804F1240410D0A369202BF7D13946E0693D
S315000011C80EF076FC0028F1D105EBC50508EB85087D
S315000011D808F10400BDE8F0810020BDE8F081304642
S315000011E8FBE700BF202919D030B400F58053D3F8A7
S315000011F80452ADB10246002302E001339D420AD0F3
S3150000120894692432A142F8D103EBC30300EB8300AF
S31500001218043030BC7047002030BC7047002070474F
S315000012282846F6E70368114A1B6A93421BD1202910
S315000012388C4619D010B500F580538646D3F80402BB
S3150000124870B17246002302E00133984209D09469CE
S315000012582432A445F8D103EBC3030EEB8300043014
S3150000126810BD002010BD184700207047ED11000082
S315000012780368164A5B6A934224D12DE9F04100F5CA
S315000012888053D3F804628046EEB10F460446002523
S3150000129804E00135AE4204F1240410D0A369202BE2
S315000012A8F7D13946E0690EF003FC0028F1D105EBC9
S315000012B8C50508EB850808F10400BDE8F0810020A3
S315000012C8BDE8F08118473046FAE700BF9D110000D7
S315000012D838B504460D4601F05DFD2946024620460E
S315000012E8BDE8384002F0B2BE2DE9F0410D4604468D
S315000012F816461F4601F04EFD3B4601463246284635
S31500001308A446BDE8F04160470368C31A1A880A2A4A
S3150000131805D95B89C21813B1C358D0587047002045
S31500001328704700BF08B50368C31A1A88082A20D967
S315000013381B89F3B1C258034498581344814212D208
S31500001348013153F8210003EB81031A5803449A1A12
S3150000135811880A2905D950891A1808B11B58D05876
S3150000136808BD002008BDAA21034B044A044808F01A
S315000013788DFA00231B68FFDE640601007006010073
S3150000138854070100704700BF704700BF4B1E184442
S31500001398B0FBF1F001FB00F0704700BFB0FBF1F0C5
S315000013A801FB00F0704700BF431E0B44B3FBF1F38B
S315000013B801FB03F0704700BF122836D8092810D859
S315000013C802282BD9012303FA00F212F4127F21D145
S315000013D812F4887F26D1072827D1022300200B6024
S315000013E870470A38082820D801A353F820F000BF10
S315000013F8E31300002D140000371400002D1400001C
S3150000140827140000331400002714000033140000CA
S315000014181D14000001230B600020704728B1042327
S315000014280B60F9E708230B60F6E7012070471023E5
S315000014380B60F1E7F0B50F4601681646411AB1F898
S3150000144800C083B0BCF1040F26D98B8883B3C45877
S3150000145803441A59234401243AB103EB820253F890
S31500001468045F934205FB04F4F9D1BCF1060F21D9B8
S31500001478CB88DBB1C0560DF10701FFF729FF98B9F4
S3150000148831469DF80700FFF797FF68B9336804FBF4
S3150000149803F33B6003B0F0BD012400200DF1070102
S315000014A8FFF716FF0028EBD003B0F0BD1846F5E7A6
S315000014B80124DAE70020F1E7F0B583B0D9B1426834
S315000014C80F46B2B11668002E13DD0023012452F828
S315000014D8045F0133B34205FB04F4F8D1007A01A98D
S315000014E8FFF76AFF18B9019B04FB03F33B6003B0DF
S315000014F8F0BD0124F2E70EF0F7F800BF08B5AA21FF
S31500001508024B034A034808F0C1F900BF640601000C
S315000015187006010054070100F8B502680D46136805
S31500001528D31A1988082948D91B89002B45D0D11800
S315000015380446D3584068C958036804229B68890042
S315000015489847206100284ED04FF0000E2168764655
S315000015580A688A1A1388082B2FD913896BB3CA58B5
S315000015680B449B589E452BD223694FEA8E0C43F8B1
S315000015782E6021680A688A1A1388082B1DD91089D3
S31500001588D8B10F580844C319C05986452DD20CF155
S31500001598040C53F80C706344D8593B44181A07884E
S315000015A8042F0AD9808840B11F580344DB590EF12D
S315000015B8010E1E441388082BCFD800231B68FFDEB4
S315000015C8C4E905666068A919E160E561036801EB8D
S315000015D8410104229B68C90098470346B0FA80F087
S315000015E8A3604009F8BD0120F8BDAA21024B034AB1
S315000015F8034808F04BF900BF6406010070060100B5
S315000016085407010010B50446D0E901010368DB68F8
S315000016189847606821690368DB689847002010BD11
S315000016282DE9F047084682B088461546FFF76CFE56
S31500001638002847D007460024D8F80030A8EB030353
S315000016481A880A2A4CD95B89002B49D058F80320F6
S3150000165808EB030959F802309144A3423AD90134F8
S3150000166859F8242009EB840959F802309144A9EB6A
S3150000167803031A88142A23D94FF0000A4FF0FF36BD
S315000016889A8A09EB0203DAB159F8022099581344E9
S315000016988A4515D20AF1010A53F82A0001A900EB76
S315000016A8400005EB80000196FFF706FF58B9019B3D
S315000016B863B9D9F80030A9EB03031A88142ADFD8CE
S315000016C8A742B9D1002002B0BDE8F087012002B0D8
S315000016D8BDE8F087AA21044B044A054808F0D6F865
S315000016E800231B68FFDE00BF64060100C007010077
S315000016F8540701002DE9F04F4FF0000B4FF0FF386B
S315000017088946816885B0131F019002930391019B56
S315000017181B681A689A1A1188082940F2CB8017891B
S31500001728002F00F0C780D9591F447B580F449B45AA
S3150000173880F09B8001980BF1010B029B57F82BA0B8
S31500001748026953F83B5007EB8B0702EB8B0207EB5A
S315000017580A0652F8044C31462A46FFF761FF00286C
S3150000176840F09D80039A04EB440457F80A3002EBD4
S31500001778C40401274A468246B9460834174630E06B
S3150000178857F82A10A1603368F21A1088042840F224
S3150000179891809288002A00F08D80B058324452F821
S315000017A800C00244E2457FD252F829C002EB890202
S315000017B852F80C006244101AB0F800C0BCF10E0FC3
S315000017C809D9C08938B1125C2AB1013103D04FF06A
S315000017D80103237333680AF1010A09F10109183470
S315000017E80C35F31A1A88042A64D99B88002B61D011
S315000017F8F25833449B589A4554D2284644F8045C18
S31500001808A4F10801FFF758FE002848D1C4E900886A
S315000018182B6833B12073002FB2D1C4F8088033681F
S31500001828D9E73368F31A1A88042A43D99B88002B08
S3150000183840D0F2583344995813448A4534D253F861
S31500001848291003EB89035A580B449A1A11880E2952
S3150000185805D9D2891AB19B5C0020002BDAD154F83D
S31500001868080C003818BF0120D4E7019B0399DA69F0
S315000018785B699AB100204FF0FF32012403EB430362
S3150000188801EBC303019D0833C3E900221C739A6068
S31500001898E9690130814203F11803F5D8002005B043
S315000018A8BDE8F08FB94632E7AA21044B044A054839
S315000018B807F0ECFF00231B68FFDE00BF640601008B
S315000018C8A4080100540701002DE9F04F05468BB026
S315000018D8CDE902232B6808461A6806919A1A1188D8
S315000018E8082940F287811289002A00F083819958D5
S315000018F813445A580B44904280F07481069A296919
S31500001908013253F8227001EB820103EB820A51F887
S31500001918046CAB680AEB070B584606EB46060793BA
S3150000192803EBC606FFF7F0FC5AF807300590ABEB59
S3150000193803031988062900F22681059B002B00F06F
S3150000194817814FF00008CDE908A72C6A01342C62EC
S31500001958DBF80030ABEB03031A880A2A40F24A8107
S315000019685B89002B00F046815BF803200BEB03092B
S3150000197859F802309144984580F0368108F10107FC
S3150000198859F827A009EB870959F80A3009EB0A0123
S31500001998CA1A1088082826D90020B2F808C001EB10
S315000019A80C02BCF1000F1ED051F80CE052F80EC024
S315000019B87244844517D9013052F8202002EB4202BE
S315000019C806EBC202D2F808C0A44500F31681BCF1A2
S315000019D8FF3F02D194602C6A0B68CA1AB2F800C09D
S315000019E8BCF1080FD9D8149B28460093DDE90223D9
S315000019F8049100F00BF959F80A300499CA1A1088AC
S31500001A08062823D90020A1469C46D388CA18002B4D
S31500001A1854D0CB5852F803E01A4486454ED90130C3
S31500001A2852F82020002A0BDB02EB420206EBC20228
S31500001A382B6AD468A342C0F2E080D360D1F800C014
S31500001A48A1EB0C021388062BDFD84C46E9696A69B4
S31500001A5800295BD0079B02EB420203EBC2024FF060
S31500001A68000CDDE9023EDDF818A070460496A6468D
S31500001A780C4609E00CF1010C644503F10C0302F174
S31500001A88180200F1040077D9D3E901614645D3F875
S31500001A980090EFD18A45EDD19168C2E90090714571
S31500001AA800F3AB80013108BFC2F808E02C6AD168A0
S31500001AB88C42C0F2A280D460EC69DBE76346CB1A9D
S31500001AC81A884C46082AC1D90022CE4618890B180E
S31500001AD8B8B1085853F800C00344944511D90132E7
S31500001AE853F82230286A03EB430306EBC303DC688A
S31500001AF8A042C0F28280D8600B68CB1A18880828E2
S31500001B08E4D8E96974466A690029A3D1059BB846F1
S31500001B18BB427FF41AAFDDE908A75AF80730ABEBEA
S31500001B2803031988082923D900201A890BEB020315
S31500001B38F2B15BF8022099581344814218D9013052
S31500001B4853F820302A6A03EB430306EBC30399686C
S31500001B588A4252DB0131D96808BF9A608A424CDB57
S31500001B68DA60DBF80030ABEB03031A88082ADCD806
S31500001B7800200BB0BDE8F08F059BB846BB42049E1B
S31500001B887FF4E3AEC7E7DA8800200BEB020322B343
S31500001B985BF802209958134481421ED9013053F844
S31500001BA82030296A03EB430306EBC3039A68914284
S31500001BB823DB0132DA6808BF996091421DDBD960E0
S31500001BC8DBF80030ABEB03031A88062A7FF6B5AEBE
S31500001BD8DA880BEB0203002ADAD1059B002B7FF487
S31500001BE8B0AE9AE7FFF78AFCAA21054B054A0648D4
S31500001BF807F04CFE00231B68FFDE0DF075FD00BFE5
S31500001C0864060100C0070100540701002DE9F041F0
S31500001C1816460268984613680546D31A188882B08D
S31500001C280628089F25D9DC88002C00F093801359D4
S31500001C38224402EB030C0A688A1A108804281FD863
S31500001C480024DCF80030A34240F2C08001345CF87E
S31500001C5824E00CEB840C5CF80E30F444ACEB030384
S31500001C681C880A2C01D95B897BB9002002B0BDE823
S31500001C78F0814FF0000C0A688A1A10880428DFD908
S31500001C889488002CDDD00C59DBE75CF80330772B01
S31500001C9831D0812B60D0762BE7D10A2840F29C8080
S31500001CA85389002B00F09880CB5C5C2B40F0948025
S31500001CB80C2840F291809389002B00F08D80C8583B
S31500001CC80B441A5803449A1A1088042828D991886C
S31500001CD8002965D1062824D9D2880AB39C580097CA
S31500001CE82B6A324601332B6228464346FFF7ECFD42
S31500001CF800285DD0BAE70A286ED95389002B6BD025
S31500001D08CB5C5D2B68D10C2866D99389002B63D0F0
S31500001D18C85819440A580B189A1A10880428D6D88D
S31500001D28002100972B6A324601332B622846434628
S31500001D38FFF7CAFD002899D10024214643463246BA
S31500001D48284608972C6A01342C6202B0BDE8F04197
S31500001D58FFF7BABDA4468EE70A283DD95389002B5A
S31500001D683AD0CB5C672B37D10C2835D99389002B11
S31500001D7832D0C8580B441A5803449A1A11880429B1
S31500001D8822D99188D9B900972C6A4346013432463C
S31500001D9828462C62FFF798FD00287FF467AF64E7B2
S31500001DA80628595808D9D28832B19C584A1C96D167
S31500001DB8631C3FF45AAFC0E74C1CBDD0B1E7595875
S31500001DC8481C3FF452AFDEE70021DCE7AA21044BAA
S31500001DD8044A054807F05AFD00231B68FFDE00BFCA
S31500001DE86406010084090100540701002DE9F04F3B
S31500001DF8D0F8008083B0D8F80070CDE90001A8EBD0
S31500001E0807073B88102B62D93B8A002B5FD0002638
S31500001E18DFF8F4A03B88102B6CD93C8A002C69D0DB
S31500001E2858F804304444E2581C4496424FD20136CE
S31500001E3854F8263004EB8604E5581C44651BB5F8AF
S31500001E480090B9F1040FE5D9AB88E218002BE1D070
S31500001E58E358514652F803B0D0185A46172A28BFF5
S31500001E68172204300DF0B6FD0028D3D1BBF1170FA9
S31500001E78D0D1BB891BB158F8032043441344B9F1A8
S31500001E88060F28D9EA8842BB1968914229D9013236
S31500001E9853F8221003EB82035A580B449A1A1188F6
S31500001EA8042924D9928812B3995813440B440199EA
S31500001EB803F11002DB680A6000998A699A420ED11A
S31500001EC8D1F80080D8F80070A8EB0707A2E7002031
S31500001ED803B0BDE8F08F0022D6E7A258D4E7012068
S31500001EE8F6E7AA21054B064A064807F0CFFC002369
S31500001EF8DB68FFDE00231B68FFDE00BF6406010007
S31500001F08700A010054070100F01E010040680368CA
S31500001F189B681847704700BF704700BF806810224B
S31500001F2803689B68184700BF406803685B691847E1
S31500001F38406803681B6918478068042203684021C3
S31500001F489B681847704700BF70B5F9B191F83030F3
S31500001F580546012B0C460CD00023C4E9013384F84E
S31500001F683030636368682146BDE870400368DB6803
S31500001F7818474E6B56B1406871680368DB68984726
S31500001F88686831460368DB689847E5E70DF0ACFBFF
S31500001F9810B5044608F042FF204610BD10B50446A9
S31500001FA808F03CFF204610BD08B5AA21024B034A9B
S31500001FB8034807F06BFC00BF64060100500B0100E4
S31500001FC85407010008B5AA21024B034A034807F043
S31500001FD85DFC00BF6406010070060100540701009D
S31500001FE810B50C4659B183693BB111468068042285
S31500001FF8036889009B6898472060002010BD0DF093
S3150000200873FB00BF2DE9F04115464FF0000E0E4652
S31500002018074698460A6882B001E0A6460C35B31A08
S31500002028198804293DD99C88002C3AD0335906EBE7
S31500002038040C5CF803109C4471452AD90EF101047E
S315000020485CF824100CEB840C5CF801308C44ACEB87
S31500002058030319880E29E0D9DB89002BDDD01CF88B
S315000020680330002BD9D0B8F1000F03D058F82E3022
S315000020780133D2D1284601A9FFF71EFA50B9B8682C
S315000020881022036801999B689847286028B132682E
S31500002098C3E7002002B0BDE8F081012002B0BDE828
S315000020A8F08100231B68FFDE2DE9F04192B3064656
S315000020B8884600242C27A2F1080501E045F83400DB
S315000020C8D8F80030A8EB03031A88082A24D91B89F4
S315000020D813B358F803204344995813448C4216D234
S315000020E8013453F8240003EB84031844FFF70CF972
S315000020F8B36807FB00F1D3F800C018460422DCF8E1
S31500002108083098470028D9D10120BDE8F081002081
S31500002118BDE8F0810DF0E8FA00231B68FFDE00BF7A
S315000021282DE9F0431C460B681746CB1A1A8883B06C
S31500002138082ADDF8289035D91B89002B32D0CA58D1
S315000021480B449B580D4699452AD28046406804227E
S31500002158036840219B689847012306460193CDF8FA
S315000021680090D8F80030294640461D6B3246234673
S31500002178A84780B95FB107EBC9077B6804EB44043D
S31500002188A4001B5973607B6823445B68B3603046C0
S3150000219803B0BDE8F0830026304603B0BDE8F083FF
S315000021A8FFF710FF00231B68FFDE00BF2DE9F04391
S315000021B81C460B689046CB1A1A8883B0082ADDF8A5
S315000021C8289042D91B89002B3FD0CA580B449B58EC
S315000021D80E46994537D203681D4ADB6A054693427F
S315000021E829D180680422036840219B6898470746DE
S315000021F831460026CDF80090D5F800C0019628464D
S3150000220823463A46DCF83050A847B8B9B8F1000F6B
S315000022180DD008EBC908D8F8043004EB4404A40030
S315000022281B597B60D8F8043023445B68BB6038468A
S3150000223803B0BDE8F08398470746D9E737463846DE
S3150000224803B0BDE8F083FFF7BDFE00231B68FFDE81
S31500002258411F00002DE9F04F064600249946736891
S3150000226891B0CDE907130D4607A8B16917460F9433
S31500002278FFF752F9824618B1504611B0BDE8F08F03
S31500002288059005A907A8FFF7B1FD82460028F3D1F6
S315000022980446BA46A7F104082B68EB1A1A88082AD6
S315000022A840F2E4801A89002A00F0E080AB582A44FC
S315000022B8D1581A448C42059B12D2013452F8241084
S315000022C802EB8402114432683046976A58F8342083
S315000022D8B8470028E0D08246504611B0BDE8F08FD6
S315000022E85246194607A8FFF705FA574682460028B8
S315000022F8C2D10421F069FFF749F8514602464B4618
S31500002308009707A8FFF7E0FA82460028B4D1DDE96E
S3150000231809577068102103681B6B98470446706854
S315000023281022036821469B689847039080B3D6F825
S315000023381090504AD9F80030DB6993422ED1002F0D
S3150000234800F08F80AB46DFF8308100255C4604E05C
S315000023580135AF4204F1180434D0237D002BF7D0A1
S3150000236810212068FFF720F82269531C1DD0D9F8E0
S315000023780030D3F80CA0C2450AD00146D4E90203BE
S31500002388009202464846D0470028E1D08246A3E795
S315000023984FF0010A504611B0BDE8F08F4846224674
S315000023A803999847D6F81090C9E7D9F8003001463E
S315000023B8D3F808A04846D4E90223D0470028C7D056
S315000023C8824689E770684FF000090268D6F81080DF
S315000023D8526A90474C4605469BF814309BB14FF01D
S315000023E8FF330693D8F80030494640469B6906AA4B
S315000023F8984700287FF46FAF069BDBF804202B4430
S3150000240809F1010913600134A7420BF1180BE3D156
S3150000241807A8FFF7F7F8706803990368DB68984719
S31500002428706803685B699847824600287FF424AF82
S315000024387068F16903681B6A9847824600287FF42A
S315000024481BAF306903681B699847316A10228142BD
S315000024583CBF30620146706803689B6A98478246AB
S315000024680AE7706803685B6A9847D1E700231B6828
S31500002478FFDE00BFC1060000BD06000008B5036800
S31500002488C31A1A88082A18D91B89D3B90A689A421E
S3150000249819D9013351F8232001EB83018B581144D4
S315000024A8CB1A1A88042A0AD998880B1820B10A5810
S315000024B89858134400B1181D08BD0023E6E700200C
S315000024C808BDC358E2E7AA21024B034A034807F0AE
S315000024D8DDF900BF64060100700A01005407010017
S315000024E82DE9F04F85B00F9E002E00F037811C466F
S315000024F80746884691460021402230460DF062FA8A
S315000025082368E31A1A88062A0BD9D88800283BD1EB
S315000025183146FEF7DDFE054650B1284605B0BDE852
S31500002528F08F00203146FEF7D3FE05460028F4D189
S315000025382368E31A1A880E2A03D9DD89002D40F08C
S31500002548D3800E9986F82D502046FFF797FF03464D
S31500002558002B736014BF01230223204603AA06F149
S3150000256818013375FEF766FF05460028D5D123689E
S31500002578E31A1A88042A09D99B88E01833B1E35864
S315000025881844FEF7FFFE02E02056C1E77648B06021
S315000025982368E31A1A880C2ABFD99B8904EB030B14
S315000025A8002BBAD054F803A05BF80A300BEB0A04E8
S315000025B8E31A19880829B0D91A89002AADD0A05873
S315000025C8224452F800C00244BCF1000FA5D00A29E3
S315000025D8A3D95B89E118002B9FD0E358CB58002B71
S315000025E89BD05368F3605BF80A30E31A1A880A2A04
S315000025F877D95B89002B74D0E25823449958134441
S31500002608002900F0A9805B6833615BF80A30E31A99
S315000026181A88082A65D91B89002B62D0E2582344F8
S315000026289B580193B9F1000F76D0D8F800200C21F9
S31500002638976840460422B847019B8146002800F067
S315000026488280D8F8002018469768019301F0DEFCCE
S31500002658042201464046B847019BC9F804000028F1
S3150000266871D05BF80A20A21A118808296DD9108939
S3150000267810B12258204410440193FEF785FED9F87C
S315000026880420019BC9F80000002B1360D9F8042028
S3150000269833DD9446042700201EE0518909B354F817
S315000026A80180B2F808E0214451F80820414404EBBF
S315000026B80E08BEF1000F53D054F80EE058F80EE09D
S315000026C8964516D0002A47D04A68013083424CF80E
S315000026D8042F07F1080710D02268A21A11880A29C0
S315000026E8DBD800231B68FFDE655D003D18BF0125AA
S315000026F827E7864530D9CA59E7E75BF80A30E31A6F
S315000027081A88102A23D800230122C9F80830C6F8E7
S31500002718349086F8302000E73A680C21D2F8088011
S3150000272838460422C047019B814660B13A6818467C
S31500002738D2F80880019301F069FC04220146384664
S31500002748C047019B89E70125E7E6002094E71B8A35
S31500002758002BD9D0E358D7E7FFF726FC0CF0C4FFC7
S31500002768DEF80030FFDE00BFF01F01002DE9F0475C
S315000027788E460146DEF800501646AEEB05052F8854
S31500002788DDF82080082F9DF82420806849684AD9FA
S315000027982C89002C47D05EF804900EEB040C5CF8EC
S315000027A80940CC44A04536D208F101045CF82480DF
S315000027B80CEB840C5CF80840C444ACEB0404B4F895
S315000027C80080B8F1040F2ED9A48864B35CF804809D
S315000027D8A4445CF80840C444A3421ED201335CF802
S315000027E823400C2F0CEB830C0CEB04030CD9AC899F
S315000027F824B15EF80450A6440EEB0504CDE908465C
S31500002808BDE8F047FFF76CBE0024CDE90846BDE8F1
S31500002818F047FFF765BEFFF7D5FBAA21034B044A2D
S31500002828044807F033F800231B68FFDE640601003E
S31500002838A408010054070100F8B50023C2E90033D3
S315000028489360144602680F46821A118805460629BF
S3150000285809D9D08818BB04F10801FEF739FD0646E8
S3150000286848B13046F8BD184604F10801FEF730FDB8
S3150000287806460028F5D139462846FFF7FFFD2060B1
S315000028882B68EB1A1A88042A0BD99B88E81843B1D7
S31500002898EB581844FEF776FD60603046F8BD2856BA
S315000028A8D9E7024B30466360F8BD00BFF01F010050
S315000028B82DE9F04F83B00190002A77D08B469046D9
S315000028C80027DBF80030ABEB03031A88082A6AD91D
S315000028D81D89002D67D05BF805305D44EA581D4414
S315000028E8974258D2013755F8272005EB8705AB588C
S315000028F81544EB1A1A88042A55D99B88002B52D0FE
S31500002908EA582B449E58019B06EB46019868042218
S31500002918036889009B689847814698B382460024D5
S315000029280CE0998921B10BEB01035BF801101944FE
S315000029385246FFF781FF0AF10C0A18BBB44225D0AC
S315000029482B68EB1A198804292DD99B885BB3E9589B
S315000029582B4458185B589C421FD2DBF800300134D0
S31500002968ABEB0303198850F824200C2900EB8400EC
S315000029781044D6D852460021FFF75EFF0AF10C0A2A
S315000029880028DBD0012003B0BDE8F08FA8F10403CE
S3150000299843F8379095E70020F5E7AA21044B054A46
S315000029A8054806F073FF00231B68FFDE0CF09CFE4B
S315000029B864060100A40801005407010070B598B127
S315000029C80D4689B10368042224215B6B04469847A7
S315000029D800220649C0E90622C0E90014261D8660C1
S315000029E805610275026270BD0CF07EFE9C1F010037
S315000029F838B50D4604461021FEF7C8FC2C44211AAA
S31500002A0801F01EF903682C215B6B042204469847E3
S31500002A180546FDF715FD29462046BDE83840FFF76F
S31500002A28CDBF00BFF8B5002940D0067D0446002E6C
S31500002A3836D1012380682375036804229B680D46F6
S31500002A48082198471A4FA3680422C0E90073E0607A
S31500002A586068A661036890219B699847E061F8B1B0
S31500002A68A0682B680268EB1A96681A88082A1AD989
S31500002A781B89C3B1EA582B4499580422C900B047A8
S31500002A88064668B123680246294620465B6A984787
S31500002A9830B923683246294620461B6A984700B152
S31500002AA800263046F8BD00231B68FFDE0CF01CFE2E
S31500002AB8E01F0100F8B51D46037DFBB1D0F800C044
S31500002AC80E46DCF83830134917468B4204468269AD
S31500002AD816D1EDB1D2B180689100036804229B68D3
S31500002AE8984703462860D4F800C03A46314620463F
S31500002AF8DCF83450A84700B92075F8BD0120F8BDA8
S31500002B08294698470028F8D1D4F800C02B68ECE786
S31500002B180CF0EAFDE91F00002DE9F04180460F465A
S31500002B28C06904211D461646FEF730FCD8F8183051
S31500002B3884467BB1002203EB430300EB830EDCF8EB
S31500002B4804400CF10C0C013408BF0132F445F6D1EF
S31500002B580B2A12D84FF0FF33CCF80070CCF8086077
S31500002B68CCF80430D8F8183000202B60D8F8183084
S31500002B780133C8F81830BDE8F0810120BDE8F081BE
S31500002B8870B50368164ADB680546934208BF406875
S31500002B980E4604BF03685B699847044600B170BDDA
S31500002BA80421E869FEF7F2FBA969B9B10246234692
S31500002BB850680133013004BF5660A9690C32994246
S31500002BC8F6D801EB41029200903268680423016846
S31500002BD8CC69E969A446BDE8704060479022F4E7ED
S31500002BE8311F0000C0687047704700BF406803681F
S31500002BF85B691847036953F821007047844630B566
S31500002C080B46D0E90101D1E9042583B00468DCF854
S31500002C180C1000956468A04703B030BD406803688F
S31500002C289B681847836801EB4101D3E9043203EB3B
S31500002C38C203586800EB8100704700BF10B5044610
S31500002C4808F0ECF8204610BD1346D0E90102526997
S31500002C58FFF762BF8B68002A53F8041B1BDB9142FF
S31500002C6819DD53F82230002B15DB02680B4952692F
S31500002C7884468A420DD130B583B0D0E90101046893
S31500002C88D1E90425DCF80C1000956468A04703B068
S31500002C9830BD194610470020704700BF052C0000BC
S31500002CA80B68002A53F8041B1BDB914219DD53F805
S31500002CB82230002B15DB02680B49526984468A428A
S31500002CC80DD130B583B0D0E901010468D1E90425F6
S31500002CD8DCF80C1000956468A04703B030BD1946AF
S31500002CE810470020704700BF052C00004B68002ADB
S31500002CF853F8041B1BDB914219DD53F82230002BD5
S31500002D0815DB02680B49526984468A420DD130B5F3
S31500002D1883B0D0E901010468D1E90425DCF80C1078
S31500002D2800956468A04703B030BD194610470020D7
S31500002D38704700BF052C000030B40024044DC0E9DC
S31500002D480444C0E9005130BCC0E90232704700BFF4
S31500002D581C200100016170470EB400B582B003A9BA
S31500002D6851F8040B019100F0EDFD02B05DF804EB9B
S31500002D7803B07047704700BF08B50846114600F013
S31500002D88E1FD002008BD00BF10B5044608F046F86E
S31500002D98204610BD044B186800B17047034A044921
S31500002DA8104611601A607047580202205C02022021
S31500002DB8A0200100704700BF10B5044608F02EF8A1
S31500002DC8204610BD2DE9F84FC36983461B68D0F825
S31500002DD814A06BB34FF000094FF02C084946DBF8F6
S31500002DE80800CBF81490FEF79DFA0646C8B10025F0
S31500002DF84FEAC907DBF81030DC5908FB0544A36A1B
S31500002E08A0695A691B68202A616912BF0022014617
S31500002E18E2691BB1DBF80400984720610135AE4230
S31500002E28E8D1DBF81C3009F101091B684B45D5D8F8
S31500002E38CBF814A00020BDE8F88F00BF2DE9F047B5
S31500002E48C36905461B68D0F81480FBB100272C26F9
S31500002E583946A8686F61FEF765FA814688B100248D
S31500002E684FEAC70A2B6953F80A3006FB04339A6AF5
S31500002E7822B1526812B11969686890470134A145B0
S31500002E88F0D1EB6901371B68BB42E1D8C5F814805D
S31500002E980020BDE8F08700BF2DE9F04FC2694369FD
S31500002EA8126883B083460193002A3DD089464FF0C5
S31500002EB8000A5146DBF80800CBF814A0FEF732FAF0
S31500002EC8054650B300244FF001082C274FEACA06DE
S31500002ED8DBF81020915907FB04118A6A92688AB1B7
S31500002EE8DBF80400904768B1B9F1000F23D02146FA
S31500002EF8DBF80C000134FFF743FEA5421BD04FF068
S31500002F080008E5E72146DBF80C000134FFF738FE38
S31500002F18A542DDD1B8F1000F0DD0DBF81C200AF16F
S31500002F28010A12685245C4D80020019BCBF8143018
S31500002F3803B0BDE8F08F012003B0BDE8F08F00BFF5
S31500002F482DE9F84FC369D0F8148041611B688146A2
S31500002F58994204D34FF0010B5846BDE8F88F8068B4
S31500002F680D46FEF7DFF90646E8B14FF0000A2C27B2
S31500002F78ED00D9F81030595907FB0A118B6ADB683E
S31500002F88C3B1D9F8040098470446D9F80C00A346FB
S31500002F980368DB689847012CDCD0002CDCD10AF1E9
S31500002FA8010A5645E5D14FF0000BC9F8148058467A
S31500002FB8BDE8F88F0CF098FB08B5AA21024B034A26
S31500002FC8034806F063FC00BF64060100100C01000C
S31500002FD85407010008B5AA21024B034A034806F024
S31500002FE855FC00BF64060100700601005407010085
S31500002FF838B583681C68A3EB040CBCF80040082CA1
S315000030082ED9BCF808405CB31D5923445C592B449F
S31500003018A14221D24C1C53F8245003EB84035C597B
S315000030282B44A3EB040CBCF80040082C18D9BCF8B8
S315000030380840ACB11D5923445C592B44A2420DD219
S315000030480069013253F8223000EBC102506803EBE5
S31500003058430300EB830038BDFFF7BCFFFFF7ACFF67
S3150000306800231B68FFDE00BF2DE9F04FC6698146C5
S31500003078336885B0002B7AD0002301930025019A86
S31500003088013256F82230D70006EB82060192083F35
S31500003098F2581E44B31A198804295DD99C88002C55
S315000030A85AD033593444E1581C448D4259D201351B
S315000030B854F825A004EB850454F80A3004EB0A0BEF
S315000030C8ABEB030319880E29E4D9DB89002BE1D081
S315000030D81BF80330002BDDD0D9F8102005EB45038B
S315000030E83A4450689B00A3F10C0803A94044FEF734
S315000030F8E3F9002841D154F80A20ABEB0202118803
S3150000310806292CD9D08850B31BF90000092826D1E6
S315000031180C2921D991890BEB0102E9B15BF8010071
S3150000312811580244511A08880A2815D948891118CD
S3150000313890B1125888580A4410B35168D9F810202B
S315000031483A445068039A50F808000CF03BFC326881
S31500003158B31A19880429A1D800231B68FFDE0021A9
S31500003168ECE7D9F81C60019A3368934286D8D9F8F7
S31500003178180008B100F0E8FB002005B0BDE8F08FA4
S31500003188AA21024B024A034806F080FB64060100A6
S31500003198500B01005407010082681368D31A198876
S315000031A8082905D91B891BB1D1581A4450587047AC
S315000031B800231B68FFDE00BF08B583681A689A1AE1
S315000031C8108808281AD91289C2B1985813441A586F
S315000031D80344914210D2013153F8210003EB8103D5
S315000031E81A5803449A1A1188082907D912892AB144
S315000031F899581344585808BDFFF7ECFE00231B687E
S31500003208FFDE00BF08B583681A689A1A108808286E
S315000032181AD91289C2B1985813441A5803449142CC
S3150000322810D2013153F8210003EB81031A580344E5
S315000032389A1A1188062907D9D2882AB199581344A7
S31500003248585808BDFFF7C6FE00231B68FFDE00BFFF
S3150000325838B583681C68A3EB040CBCF80040082C3E
S315000032682ED9BCF808405CB31D5923445C592B443D
S31500003278A14221D24C1C53F8245003EB84035C5919
S315000032882B44A3EB040CBCF80040062C18D9BCF858
S315000032980640ACB11D5923445C592B44A2420DD2B9
S315000032A80069013253F8223000EBC102506803EB83
S315000032B8430300EB830038BDFFF78CFEFFF77CFE67
S315000032C800231B68FFDE00BF30B40024C0E90223D8
S315000032D80A4D029BC0E90051C0E90444836152B11A
S315000032E81368D31A1988082904D91C8914B11359E3
S315000032F82244D418C46130BC704700BFD4200100F2
S315000033080161704708B5AA21024B034A034806F033
S31500003318BDFA00BF640601007006010054070100EB
S3150000332808B502681368D31AB3F800C0BCF1080FD1
S3150000333824D91B8913B302EB030CD3580CEB0302F5
S315000033485CF80330C3B15368043302EB030CD3585B
S31500003358ACEB03031A88062A10D9DB8873B10CEB89
S3150000336803025CF80330D358994236BFD0F88C3044
S31500003378002053F8210008BDFFF7C4FF00231B688F
S31500003388FFDE00BF08B502681368D31AB3F800C099
S31500003398BCF1080F24D91B8913B302EB030CD358CD
S315000033A80CEB03025CF80330C3B15368043302EB39
S315000033B8030CD358ACEB03031A88082A10D91B89C7
S315000033C873B10CEB03025CF80330D358994236BF4D
S315000033D8D0F89030002053F8210008BDFFF792FF7F
S315000033E800231B68FFDE00BF2DE9F0410E46154697
S315000033F81F4600F10808044682B05822C0E9006555
S31500003408002140460CF0DEFA08993846FFF7F0FA34
S31500003418099B32460093034604F164064146236637
S315000034283046FFF751FF00234FF480722546C4E962
S315000034382333C4F88830A4F8842055F8942B3346EF
S315000034482846216EFFF778FC0023204609490A4AD8
S31500003458A16162650A99094A2561A163A26584F892
S31500003468853002B0BDE8F0813046FFF7A3FC07F0CF
S31500003478DBFC00BF612D0000511000005910000050
S3150000348838B5436F044600F1640513B12846FFF7C3
S31500003498D5FC04F19400FFF7A7FB2846FFF78AFC42
S315000034A8204638BD2DE9F04F00F1640404270026B4
S315000034B8814625468FB02846FFF76EFE864280F283
S315000034C8FE80D9F800100A688A1A1388082B78D95A
S315000034D81389002B75D0C8580B441C580344A642C0
S315000034E880F0F580D859D2883B4403440693002AD5
S315000034F800F0E3808B580A4402EB030AD9F860000F
S31500003508FFF770FB08900698FDF7FEFE8646002832
S3150000351800F0AE804FF0000BD846CDE90A75F300EF
S3150000352800930996079006990B68CB1A1A880A2AF7
S3150000353847D95C89002C44D00B590C44E2581C44EA
S315000035485A4540F2BE800BF1010B54F82B6004EB90
S315000035588B04A359A519EB1A1A88042A40F28B8002
S31500003568988800B12858DAF80030834225D9D9F866
S315000035787430009F0130DA595AF8203042440AEB79
S3150000358880001844D9F80410283200F0F1F90346EF
S31500003598002840F08E80D9F87430DB5943449B6A82
S315000035A85BB10D905969A3592029A5EB03031A8825
S315000035B865D00E2A08D9DB8933B101200FB0BDE8E2
S315000035C8F08F00231B68FFDED9F8040003689B6AA6
S315000035D898470028F1D00DAB2946089AFDF784FED6
S315000035E80346002865D1A359EB1A1A88062A58D823
S315000035F80020CDE90400FDF7C5FEA3590190EB1A9A
S315000036081A88082A39D9188910B12B582844184419
S31500003618FDF7B8FE009FD9F874302822DB590290CE
S3150000362803EB08070021384603930CF0CBF9019AFF
S31500003638039B43F80820029B7B60059BBB61049BA8
S31500003648FB610D9B7B61A359EB1A1A88142A06D9CC
S315000036589B8AE8181BB1EB58C25818442ABB079B2B
S3150000366808F12C085B457FF45EAF0B9DDDE9096721
S31500003678013604371FE7002075E70020C8E70E2A41
S31500003688B4D9DA89A9186AB1AA5888188A58049246
S31500003698021D0592D8880028ADD02B582844184416
S315000036A8A9E70022CDE90422F4E7FDF76BFEB8602E
S315000036B8D5E718460FB0BDE8F08F92461EE7002002
S315000036C87CE7AA21034B044A044806F0DFF8FFF713
S315000036D819FE00BF64060100C00701005407010077
S315000036E82DE9F04F04460D4683B00168006EFFF7DA
S315000036F899F9002800F0FE8004F164060146304678
S31500003708FFF7FEFD2046FFF7CDFE034610B103B0D6
S31500003718BDE8F08F7C4A6064E2633046A364E362E6
S31500003728FFF750FB0028F2D1784A794B29463046F4
S315000037386264E362FFF7B0FB0028E8D17549E063ED
S31500003748C4E91101626F2168206E04F18803FFF74E
S31500003758B1F90028DBD1D4F8881004F19400FFF7FA
S31500003768F9FA206E2368026855691A689A1A118848
S31500003778082940F2C6801289002A00F0C2809958AA
S3150000378813445A580B44002A00F0B9805A68043288
S31500003798995813445A1A1188062940F2B280D288D9
S315000037A8002A00F0AE809958134459588900A84752
S315000037B8C4F88C00002800F0A08000270425B8462D
S315000037C816E05CF80530CDF80080DEF800B0626FD0
S315000037D8D4F88CA0D847A5F104094AF80900D4F80A
S315000037E88C30013753F809300435002B00F08580FA
S315000037F821680B68CB1A1A88082A40F282801B892E
S31500003808002B7ED0CA580B4498581344002876D00B
S315000038185A680432985813441A1AB2F80090B9F143
S31500003828060F6ED9D08800286BD053F800E003EB5A
S31500003838000C5CF80EA0206E5745F444D0F800E062
S31500003848BFD3B9F1080F5CD91289002A59D0995803
S3150000385813445958DEF814508900A847C4F8900054
S3150000386800284AD000270425B84616E0206E5B5982
S31500003878D0F800C0626FCDF80080DCF800B0D4F84C
S3150000388890A0D847A5F104094AF80900D4F8903061
S31500003898013753F8093004357BB321680B68CB1A16
S315000038A81A88082A2DD91B895BB3CA580B4498581D
S315000038B8134420B35A680432985813441A1A1088C5
S315000038C808281ED91289E2B1985813441A58034495
S315000038D89742CBD33046FFF7B1FA00287FF417AFEB
S315000038E83046FFF7C1FB00287FF411AF012384F8A7
S315000038F884300CE7012384F88530012007E7FFF7B9
S3150000390801FD00231B68FFDE39100000411000008E
S31500003918611000004910000090F8853083B910B591
S3150000392890F8843004461BB90121FFF7D9FE30B957
S3150000393804F164000021BDE81040FFF701BB10BD8B
S3150000394801207047704700BF38B58368002B0DDD2E
S31500003958054600242B68002103EB0413D3E9020271
S315000039680CF030F8AB680134A342F3DC002038BD14
S3150000397870B5164604460D46FFF70CFA334602465E
S3150000398829462046BDE8704000F032BC08B5C8B1EB
S315000039980368C31A1A880A2A03D8042A0DD80020ED
S315000039A808BD5A8902B182589B8823B918469042A5
S315000039B8B8BF104608BDC056F9E79B880022002B01
S315000039C8F4D0F8E70BF090FE704700BFD0E9072364
S315000039D85140013BC0E90713704700BF036A23B98A
S315000039E8C069B0FA80F0400970470020704700BFF0
S315000039F880687047036982698068934234BF101AE9
S31500003A08181A7047C2684069101A704710B50446FC
S31500003A1807F004FA204610BDF8B504460E4680683D
S31500003A2819461D461746FDF7B1FC2169A369994257
S31500003A3801D00120F8BDB042FBD12946A068FDF7A8
S31500003A48A5FC62690346121ABA42F2D33B442361C3
S31500003A58A3610020F8BD00BF38B504460D4680694D
S31500003A681146FDF793FC63691B1AAB4208D3D4E9E8
S31500003A78072305444240C4E906520133236238BD90
S31500003A88002038BD0B4610B5044640691146C01AD9
S31500003A98FDF784FC2369834294BF6061002010BD52
S31500003AA838B5044680690D46FDF770FC034629467D
S31500003AB860691C46FDF772FC001B38BD0438704768
S31500003AC882680069101A704710B5041F204607F06F
S31500003AD8A5F9204610BD00BF10B50368084A1B6942
S31500003AE80446934207D1036A43B9C36933B92369C4
S31500003AF80020A36110BD98470028F8D1012010BD09
S31500003B08E53900000B4610B5044600691146C01A8F
S31500003B18FDF744FCE36898422CBF2061002010BDE5
S31500003B2870B50268104BD5699D4216D104460E46FB
S31500003B3880680121FDF72AFC2269A3699A4201D00F
S31500003B48012070BD8642FBD10121A068FDF71EFC4D
S31500003B5803462361A361002070BDAC46BDE87040F2
S31500003B6801230022604700BF213A00002DE9F041F9
S31500003B7804460F46806811461546FDF707FC22687D
S31500003B88134BD2F81CE006469E4519D12946A06873
S31500003B98FDF7FCFB2269A3699A4202D00120BDE821
S31500003BA8F0818642FAD12946A068FDF7EFFB6369E2
S31500003BB81B1A9F42F2D8074427610020A761EEE747
S31500003BC82B463A460146F4462046BDE8F041604792
S31500003BD8213A00002DE9F04104460F468068114657
S31500003BE81646FDF7D3FB2268144BD2F81C8005460F
S31500003BF8984519D13146A068FDF7C8FB2269A36923
S31500003C089A4203D000252846BDE8F0818542F9D1BD
S31500003C183146A068FDF7BAFB63691B1A9F42F1D8C3
S31500003C2838442061A061EEE733463A4620462946E5
S31500003C38C0470028E6D12846BDE8F081213A0000B1
S31500003C4838B5A8B1451804460421A5F12400FDF7A6
S31500003C58A5FB84420ED80021084AC0E90440C0E901
S31500003C68064102604432C56084604260016238BD24
S31500003C780BF03AFD0023014A1A60FFDEB821010065
S31500003C88002923DD0378012943F3030313701DD0AC
S31500003C9830B500230446551C09E010F80CC00EF197
S31500003CA8030E4CF3030C714502F803C00DD094F9CA
S31500003CB800C09E464FEA2C1C05F803C00233994201
S31500003CC84FEA630C00EB6304E7DC30BD704700BFC6
S31500003CD838B5054608460C4608F08AF90022144B02
S31500003CE851EC100B09F0E0FF41EC100B08F0B8FAA4
S31500003CF851EC100B0AF050FB4FF0004E4FF0000C41
S31500003D0886457CEB010210DB614508BF704503461A
S31500003D18226803D14FF08043013222601F3202DA53
S31500003D280022134622602B6038BD0BF0DDFC00BF75
S31500003D380000E041F8B555EC104B06460F46002248
S31500003D480023204629460AF017FA18B100233360E3
S31500003D583B60F8BD3946304645EC104BBDE8F840A7
S31500003D68FFF7B6BF000000002DE9F0412DED028BEC
S31500003D7882B0054691ED038AD2ED038ADDF82880E4
S31500003D887BB318EE100A1C4609F036FF064618EEF5
S31500003D98900A0F4609F030FF02460B463046394670
S31500003DA809F082FF0646E0680F4609F025FF0B4634
S31500003DB802463946304609F0BFFD0246D8F80C00DF
S31500003DC8164621F0004709F017FF02460B46304613
S31500003DD839460AF093F822A3D3E900230AF0E0F95A
S31500003DE808B328EE288AB5EEC08AF1EE10FA29DB68
S31500003DF818EE100A09F000FF0446D8F80C000D4624
S31500003E0809F0FAFE02460B46204629460AF076F8DD
S31500003E1802460B4600200B99C1E9002302B0BDEC0F
S31500003E28028BBDE8F0814FF49E73094928462C6938
S31500003E38084A00910849A047012002B0BDEC028B50
S31500003E48BDE8F08140F249130449EFE7AFF300807B
S31500003E58180D0100C80C0100A00501003C0D010069
S31500003E687B14AE47E17A943F30B592F800C0864697
S31500003E78BCF1070F83B021D0BCF1090F0DD0BCF1FE
S31500003E88030F43D05949046940F28F130091584AE9
S31500003E985849A047012003B030BD7F246FF07F004A
S31500003EA8012992ED037A156910D0032952D0022907
S31500003EB82FD01860069B1C600020ECE7012947F606
S31500003EC8FF7492ED037A4C481569EED19FED4B6A63
S31500003ED8C6EE077ADFED4A6AF8FE677AF4EEE67A06
S31500003EE8F1EE10FA29DB9FED477AF4EEC77AF1EE88
S31500003EF810FA22D8FDEEE77A17EE902A2A44824273
S31500003F08B8BF02461A60069B1C60D5E7FF2400204E
S31500003F18C6E7BFEE006AC6EE077ADFED396AB8FE75
S31500003F28677AB4EEE67AF1EE10FA06DB9FED356AAB
S31500003F38B4EEC67AF1EE10FA44D933497046DEF883
S31500003F48104040F257130091294A2A49A0470120F8
S31500003F5803B030BD9FED296AC6EE077ADFED286A01
S31500003F68F8FE677AF4EEE67AF1EE10FAE5DB9FEDF5
S31500003F78256AF4EEC67AF1EE10FADED8FDEEE77A97
S31500003F88F1EE085A17EE902AC5EE877AF8FE677A98
S31500003F98F4EEE67A2A448242B8BF0246F1EE10FAF7
S31500003FA81A60CADBF4EEC67AF1EE10FAC5D8FDEE51
S31500003FB8E77A17EE903A2B44A342A8BF2346069AFF
S31500003FC8136079E7F1EE677ABDEEC77AF8FE677A8D
S31500003FD817EE102AF4EEE67A2A448242B8BF024661
S31500003FE8F1EE10FA1A60DDDAA7E700BF580D0100F6
S31500003FF8C80C0100A00501000080FFFF00000000BA
S31500004008000000CF0000004F600D01000130800065
S31500004018704700BF12289ABF024B53F82000024887
S31500004028704700BF0C220100880D01000EB400B5D0
S3150000403882B003AA52F8041B036801929B6898474A
S3150000404802B05DF804EB03B0704700BF08B58C46B4
S315000040581346112841D8DFE800F00D101316191C75
S315000040681F2225282B2E3134373A3D0912230B708F
S31500004078002008BD01230B70FAE70A230B70F7E747
S3150000408802230B70F4E703230B70F1E704230B708C
S31500004098EEE705230B70EBE706230B70E8E707232B
S315000040A80B70E5E708230B70E2E709230B70DFE7DF
S315000040B80B230B70DCE70C230B70D9E70D230B7071
S315000040C8D6E70E230B70D3E70F230B70D0E7102328
S315000040D80B70CDE711230B70CAE74FF0000E0246AE
S315000040E8034918468CF800E0FFF7A0FF012008BD39
S315000040F83C0E01002DE9F041002874D088460029BD
S3150000410871D01546002A6ED01F46002B6BD0136857
S31500004118064601221B6804212846984700230360A7
S3150000412832680446B21A13880A2B2FD9518969B303
S31500004138715C08292AD10C2B28D99389F1182BB33D
S31500004148F358C858CA18101A0688042E26D9808823
S3150000415858BB2070C858101A0688082E1CD9008922
S3150000416848BBA070C858101A06880A2E12D940896A
S31500004178B0B9E070CB58D31A1988062906D9DB8856
S3150000418823B1D35613B1012B1AD163703C600020BA
S31500004198BDE8F0810020ECE70020E2E70020D8E740
S315000041A8105C003818BF0120E3E7105C461E042E99
S315000041B888BF0020CDE7105C003818BF0120D0E783
S315000041C840460A49FFF732FF2B68284621465B68B6
S315000041D898470120BDE8F0812B68214628465B6890
S315000041E8984706F021FE0BF07FFA00BF600E01002B
S315000041F82DE9F0430024054683B01C601E46904610
S315000042080F46FFF7C3FB2B680446EB1A1A88082AE1
S315000042182BD91A89CAB19E281EDC202855F8029087
S3150000422829D1DB88E918002B42D0EB584A460433DB
S3150000423819443B6838465B6898470346B0FA80F0ED
S315000042484009336003B0BDE8F0839E2804DC2028CB
S315000042584FF001090FD1E4E7224640461849FFF717
S31500004268E5FE012003B0BDE8F0839E28F4DC202893
S315000042781CD04FF001093B6838464A4621461B6860
S315000042889847306018B1002003B0BDE8F083002CD1
S31500004298A8BF0C4B4046ACBF53F824300A4B0B4A18
S315000042A80B49CDF80090FFF7C1FEDAE7062A04D8D5
S315000042B840460849FFF7BAFED3E74FF00109B0E7D1
S315000042C88C0E010058220100601A0100E00E010060
S315000042D8080F0100840F01002DE9F04FA5B0DDF8A5
S315000042E8C4B09946BBF1010F0BF1FF330D462E9C66
S315000042F82F9EDDF8CCA01C9020921D9340F33382AC
S315000043086FF003004FF00008309B329F59100BFBEB
S3150000431801F3CBEB43031F93329BC21B103B23F0E5
S315000043280F0310330E93329B7800013B05EB030E07
S31500004338CDE915E88446D0468E4692461493231D49
S315000043480793331D309F06934FEA4B031293329B14
S3150000435807F00107CDE922591E97043309EB0B072D
S31500004368DDF88090DDF8C8B00F9521900293319B57
S31500004378BBF1000FA7EB0303089340F36883002201
S31500004388159D114628460F9B013B13F9014F214401
S3150000439810F9014F9D422244F7D101FB08F310930F
S315000043A802FB08F31193B9F1000F0CD0169A09F124
S315000043B8040353F822301199194459F82230109AF7
S315000043C811911A4410921C9CBEF1000F00F0A281B4
S315000043D8ABF10405CDF86CA0AA467B1C0A93CDE97F
S315000043E817CEDDE90E23CDE91979134413930BF1A2
S315000043F80803CDF824E00193CDF8CC80BBF10F0F6C
S3150000440840F31782119B109E194632460E980F9F4D
S31500004418201803903868D4F800C057F80B502FFAC4
S3150000442880FE2FFA8CF82FFA90F02FFA9CFC28FBC6
S315000044380E662FFA85F92CFB00662FFA95F528FBF0
S3150000444809382CFB058C54F80B302FFA83F82FFA11
S3150000445893F328FB0E2E28FB091823FB00EE786839
S3150000446823FB0581029B6268FB582FFA80F52FFA19
S3150000447882F82FFA90F02FFA92F228FB05662FFAA7
S3150000448883F922FB00662FFA93F328FB09C822FB5F
S31500004498038C029AA2582FFA82F82FFA92F228FB76
S315000044A805E528FB091822FB0055B96822FB03829B
S315000044B8019BA068FB582FFA81F82FFA80FE2FFA85
S315000044C891F12FFA90F02EFB08662FFA83F920FB5C
S315000044D801662FFA93F32EFB09CE20FB03EE019813
S315000044E820582FFA80FC2FFA90F02CFB08582CFB4A
S315000044F8092520FB018CFA68103720FB0350E36876
S3150000450857F80A5010342FFA82F82FFA83F12FFA47
S3150000451892F22FFA93F321FB08662FFA85F923FB0B
S3150000452802662FFA95F521FB09E123FB051354F8DA
S315000045380A102FFA81FE2FFA91F12EFB08C82EFBDE
S31500004548090E21FB028221FB05E1039884427FF4D0
S3150000455861AF13980E9FBB451EDD149C00EB040E3D
S31500004568039C0138AEEB070E013C10F9018F14F9D4
S31500004578015F10F90BC005FB086605FB0C3314F93F
S315000045880B50864508FB05220CFB0511EDD1039857
S31500004598ABEB07073844039006984FF0804450F871
S315000045A8045C079825EAE57950F8047C002006FAA9
S315000045B809F6C6FB0740E40F44EA400401206D42B1
S315000045C825EAE5750B9700FA05F7013F04EA0700A7
S315000045D84FEA670E2C41059454BF74460EF1010448
S315000045E8A04202DD0598013005904FF0804800266C
S315000045F8069802FA09F20468079824EAE47C006837
S3150000460803FA0CF3C3FB00860C9040460123644270
S3150000461824EAE474C00F40EA460003FA04F6013EB1
S3150000462800EA06030D937310204104934CBF03F16F
S315000046380108DDF810800D9B4FF0000943454FF047
S3150000464880480B9B01FA0CFCC2FB038943464FF0DA
S3150000465880424FF000014FEAD37343EA490307EA61
S315000046680307C8BF01302B410C9D48BF0EF1010E50
S31500004678CCFB0521D20F774542EA4102C8BF013378
S315000046881640224102D50499013104910499349CBB
S315000046988E420599C8BF013221442044234422444E
S315000046A8359C369DA142B8BF2146A042B8BF2046D8
S315000046B8A342B8BF2346A242B8BF2246A942A8BF12
S315000046C82946A842A8BF2846AB42A8BF2B46AA42FD
S315000046D8A8BF2A46089D039C68700A98297000F8A6
S315000046E8013C034629460270129A5C4413440A9315
S315000046F8099B1144013B089109937FF47FAEDDE9DC
S315000047081979DDE917CE1F9BDDF8CC803B44DDF82F
S315000047186CA008931E9B002B40F093800F9A169B63
S3150000472862440F92159A023362441592079A1693B9
S3150000473808320792069A0237083206921D9A934261
S31500004748FFF615AEDDE92259DDE92E46C246DDF84B
S31500004758C4B0219AABF102035B0803FB02220133C2
S31500004768154409EB43091BF0010F5ED0309B002B63
S315000047785BDD4FF0804E00204FF00108209A0BEBCE
S315000047880E03013B04EB830CCDF8C4B006EB83049F
S31500004798DDF8C8B002EB83031C9A02930195209BAF
S315000047A8002B00F05881029B1968BBF1000F0CDD45
S315000047B8019B02EB0B075D1E12F9013B15F9016F10
S315000047C85344BA4206FB0311F6D12568002725EAA9
S315000047D8E57601FA06F67146DCF800306D42C6FB4E
S315000047E8031725EAE575C90F08FA05F341EA4701F3
S315000047F8013B01EA030629414FEA630348BF013337
S315000048089E42349BC8BF01310B44359901308B4217
S31500004818B8BF0B4636998B42A8BF0B4689F80030BD
S31500004828319B9944309B8342B9D1002025B0BDE81D
S31500004838F08F119B109E1946324600270F98039455
S3150000484889E6BBF10F0F40F30881159BCDE9047982
S315000048580E9A0533CDF804C0CDF80CE0CDF8C8B0F3
S31500004868A618DDE910125AF803E053F8045C20682C
S315000048780AEB03072FFA8EFB2FFA80FC2FFA85F92D
S315000048882FFA9EFE2FFA90F02FFA95F52CFB0B1BAC
S3150000489820FB0EB12CFB092C20FB05C07D68D3F844
S315000048A800C062682FFA85FB2FFA82FE2FFA8CF970
S315000048B82FFA95F52FFA92F22FFA9CFC2EFB0B1B7A
S315000048C822FB05B52EFB090E22FB0CE2D7F8089051
S315000048D8D3F804E0D4F808C02FFA89F02FFA8CF13F
S315000048E82FFA8EFB2FFA99F92FFA9CFC2FFA9EFEC7
S315000048F821FB00502CFB090021FB0B212CFB0E157C
S31500004908F968E2689F6810342FFA81F92FFA82FC59
S315000049182FFA87FE2FFA91F12FFA92F22FFA97F7CC
S315000049282CFB090922FB01912CFB0E5C22FB07C21A
S31500004938B44203F1100396D1DDE90479CDE91012EA
S315000049480E990F9A0B46DDF804C0DDF80CE0DDF889
S31500004958C8B00A449B4519DDDDE91005ABEB030336
S31500004968F418149B511ECDF804C01A4416F9013BDD
S3150000497811F901CFA64213FB0C0012F901CF13FB64
S315000049880C55F3D1CDE91005DDF804C0069B109847
S3150000499853F8041C4FF0804421EAE1729040024625
S315000049A80020079B53F8043CC2FB034001234A42FC
S315000049B822EAE272E10F934041EA4001013B51FAD3
S315000049C802F401EA03004FEA630348BF0133984241
S315000049D8069B4FF000011A68079B22EAE2701D68E1
S315000049E8119BC2F1000203FA00F318464FF0804308
S315000049F8C0FB05314FEAD37343EA41034FF0010187
S31500004A0822EAE27201FA02F101F1FF3103EA01003A
S31500004A18C8BF01344910134148BF0131884234994F
S31500004A28C8BF0133349A0B44359922448A42B8BF29
S31500004A380A468B42B8BF0B4636998A42A8BF0A4631
S31500004A488B42A8BF0B4608990A704B7066E600238E
S31500004A58CDE91033A7E42099A7E6264600230F9A46
S31500004A6878E700BF2DE9F04F97B0DDF88CE0904667
S31500004A780EEBDE7676100E96229E9C46B6F5007FE5
S31500004A88A8BF4FF40076BEF1010F0D9040F30881E0
S31500004A98209A3346229806920022400003902098D6
S31500004AA8002E4FEAE07005902198B8BFF31CC0F1BC
S31500004AB80E07B9460D98049223F003029B100F9334
S31500004AC800EBC3031193229BCDE913619B1A129342
S31500004AD8219B109212330CF1040A01EB020B079387
S31500004AE8CDF854C0CDF88CE0229B0E46CF18039B18
S31500004AF819440F9B002B00F0408100229E46104669
S31500004B08CDE908BACDE90A45DDF834C00C91DCF8E0
S31500004B1800B0DCF804A056F8041B0CF1080C2FFAB8
S31500004B2891F32FFA81F1C3EA2145C1EA034121FB3A
S31500004B380B0125FB0A1057F8043B2FFA93F12FFABD
S31500004B4883F3C1EA2345C3EA014323FB0B2325FB71
S31500004B580A32BEF1010EDAD1DDE908BA5E46C3179C
S31500004B680193229B1446D5170C99119A00900BEBCA
S31500004B780307229B1098834218DD129BCDF82080EC
S31500004B8806EB030C8846DDE9000116F901EB32F95C
S31500004B98023B6645C3FB8E0117F901EBC3FB8E4545
S31500004BA8F3D1CDE900014146DDF82080B8F1000FC8
S31500004BB815D0DDE90067D8F80030D8F80420F318D6
S31500004BC842EB0702CDE90032D8F80830D8F80C20B5
S31500004BD8E31842EB05021C46154608F11008DDE904
S31500004BE800673346059A209802FB06F2069E00FBEC
S31500004BF80722A3FB06363244079EB9F1200002FAC3
S31500004C0806F623FA09F358BF42FA00F043EA060308
S31500004C1858BF0343249A01335B109342B8BF134627
S31500004C28059A209802FB04F200FB052225980AF152
S31500004C38040A8342A8BF03462AF8083C069BB9F132
S31500004C482000A4FB03363244079E23FA09F302FA2E
S31500004C5806F658BF42FA00F043EA060358BF034374
S31500004C68249A01335B109342B8BF13460398049AFB
S31500004C788344259801328342A8BF03462AF8063C96
S31500004C880E9B049293423FF72FAFDDE91361039A17
S31500004C98DDF854C003FB0211DDF88CE00CEB830C45
S31500004CA81EF0010F65D0351EB8BF0335AD106AD0AA
S31500004CB82C460E4600200D9A56F8043B2FFA93F719
S31500004CC82FFA83F3D2F80090C7EA234EC3EA0743C4
S31500004CD823FB0900536808322EFB0300013CEBD185
S31500004CE806460D9B01EB850103EBC5030D93AD004D
S31500004CF8C717229BAB420EDD581B32463B460D9C1E
S31500004D08084411F9015B34F9026B8142C6FB85231D
S31500004D18F7D116461F46B8F1000F06D0D8E900109D
S31500004D28711840EB07000E460746209B03FB07F069
S31500004D38DB1703FB0600209BA3FB06321044219ACF
S31500004D48C2F10E011232CB4000FA02F2203943EAD0
S31500004D5802035CBF40FA01F10B43249A01335B104E
S31500004D689342B8BF1346259A9342A8BF1346ACF898
S31500004D780030002017B0BDE8F08F002400250D9AFA
S31500004D88CDE90045F5E600260027B2E72DE9F04F04
S31500004D9895B0249D1E9E05EBD5746410012D37B27F
S31500004DA88246C7EA0747DDF88CC00B94129340F396
S31500004DB8F28064464FF00108229BBCF1000FB8BF91
S31500004DC80CF103045B4224F0030E23EAE373029317
S31500004DD87346A4100E940CFA08F40194279C01EB70
S31500004DE8030B04FA08F40C94229CCDF83CE024EA60
S31500004DF8E47406941C46029B002008FA03F3013B60
S31500004E08039343FA08F30493434405930AEB040314
S31500004E181193ACEB04038E46E046DDF848901093F8
S31500004E28CDF834A013912495002A00F0A480536885
S31500004E3852F8081B019C0EEB0805744407940E9C57
S31500004E48002C00F00D81A446CDE90890DDF834A0C9
S31500004E58CDF828B05AF8040B27FA90FB5EF8044BF5
S31500004E6827FA80F02FFA94F92FFA84F429FB0B1904
S31500004E7824FB009155F8044B2FFA94F92FFA84F481
S31500004E8829FB0B3924FB0093BCF1010CE2D1DDE9C7
S31500004E980890DDF828B0DDF844C0DE460BEB0805BF
S31500004EA80F9CA04512DD109C08970CEB040A64467B
S31500004EB814F9017B1EF901CB374407FB0C1115F9D0
S31500004EC801CB544507FB0C33F2D1089F4FF0804CB9
S31500004ED80025069C0130A140219CC1FB04C56446FF
S31500004EE80299E40F44EA4504039D54FA01F104EAE1
S31500004EF8050CDDE9044558BF2546AC454FF080450D
S31500004F084FF0000C069CC8BF0131A340219CC3FB8F
S31500004F18045C029CEB0F43EA4C03039D53FA04F42A
S31500004F2803EA050CDDE9043558BF1D46209BAC4550
S31500004F38C8BF013419441C44259B9942B8BF194679
S31500004F489C42B8BF1C46019B9B44269B9942A8BF1E
S31500004F5819469C42A8BF1C46279B89F8001009F8E9
S31500004F6803400C9B99440B9B834207DDDDF81CE04C
S31500004F78002A7FF45CAF134611465BE7C4460198E6
S31500004F8813990C9C03FB00111298DDF834A003FB5F
S31500004F980403249D1293EB075ED5002A63D0136899
S31500004FA8E046BCF1000FB8BF0CF103085FEAA80899
S31500004FB81AD08E465546444655F8040B27FA90FBF8
S31500004FC85EF8042B27FA80F02FFA92F92FFA82F26C
S31500004FD829FB0B3322FB0033013CEDD101EB8801A1
S31500004FE80AEB880A4FEA8808C4450BDDACEB0802D1
S31500004FF852441AF9010B11F9014B3044924500FB52
S315000050080433F6D14FF0804200200121229C24EA85
S31500005018E474A340219CC3FB0420229BD20F5B426D
S3150000502823EAE373994042EA4002013902EA0100A1
S315000050381A414FEA610148BF01318842209BC8BF27
S3150000504801321344259A9342B8BF1346269A9342CF
S31500005058A8BF1346129A1370002015B0BDE8F08F4A
S31500005068DDF834C01CE713469AE700BF2DE9F04F78
S315000050781D481C68136887B08342D8BF03F5004CE7
S315000050889346DDE91059DDE915860F46CCBF47F68C
S31500005098FF7A4FEA2C4A14B3D8F80C3016961A46FB
S315000050A85646D9F80010DDF858A03B690392DBF89C
S315000050B804000593FA685346CDE900600291284634
S315000050C812990492149AFFF7CDFCD9F80010D8F873
S315000050D80C20013C05EB41050AEB420AE5D100200C
S315000050E807B0BDE8F08F00BFFFFFFE7F00207047C6
S315000050F82DE9F04F1D688BB0DDE91469DDE9198AE1
S3150000510855B34FF0010B0C461746C246D8F80C208B
S31500005118D9F80010DDF8688006927A68CDF824B0D0
S31500005128CDE904213968A2684346CDE90221002168
S3150000513822683046CDE90021226916990892E2686C
S315000051480792189AFFF722FED9F80010DAF80C2011
S31500005158013D0E449044DFD100200BB0BDE8F08F2E
S3150000516800207047086900282ED130B54C698BB0ED
S315000051783CBB8868012824D1C868012821D1486A1F
S315000051880890086A0790D1E900050695D3E9021543
S31500005198CDE90450D3E9003000FB01F1D2E900055E
S315000051A803FB01F10291139900900195C968149BBC
S315000051B80391129A10990E98FFF78EF820460BB0B5
S315000051C830BD4FF0FF30FAE74FF0FF30704700BFB1
S315000051D8002070470388B0F802C049680CFB03F347
S315000051E842683BB1F2EC017A67EE807A013BE1EC6A
S315000051F8017AF7D1002070470020704708B510EEF5
S31500005208100A08F0F9FC02460B46024800F0EEF9CF
S3150000521808BD00BF301701000AF08ABA0AF06CBA56
S315000052280AF08EBA00200021704700BFFEE700BFD3
S315000052384FF0FF30704700BF01207047704700BF2E
S3150000524803680868184700BF10B40468086811683E
S315000052581A6823465DF8044B184700BF8C4608B504
S31500005268134605494FEA8C0201EB800118460AF0FD
S3150000527837FC002008BD00BF6002022010B50446B6
S3150000528805F0CCFD204610BD08B5436B012B09D8A7
S3150000529833B1C36A994201D0002008BD006B08BD2E
S315000052A8184608BD0AF020FA10B50446806A18B1F7
S315000052B8A369202B01D0002010BDE0690AF0F8FB95
S315000052C80028F8D1201D10BD202904D0836A13B107
S315000052D88369994201D0002070470430704700BFA7
S315000052E808B530B130F8023CC01ABDE80840FFF7EF
S315000052F897BF6B21024B034A034804F0C7FA00BF65
S31500005308341701003817010064170100F0B5C768A3
S315000053181D6D97F85460B7F862E06EB1002105F18B
S31500005328040C55F8314024B15CF83100824206D0AD
S3150000533828B101318E42F4D16FF02000F0BDBEF1E4
S31500005348000F05D02268796E12680968DA609960DC
S315000053580020F0BD52B1012A02D101600020704739
S31500005368022A04BF0B68036000207047014B0360E4
S3150000537800207047B036010052B1012A02D10160FF
S3150000538800207047022A04BF0B680360002070479C
S31500005398014B0360002070477436010052B1012AA0
S315000053A802D1016000207047022A04BF0B6803601F
S315000053B800207047014B03600020704758360100F3
S315000053C82DE9F04F04680868A1681268B0FBF1F986
S315000053D8B2FBF1FAD3F80080E36887B01A6A02FBD9
S315000053E809F902FB0A9AD14538BF4FF0000B2CD2B7
S315000053F839B30025012708EB8B06CDF8048006E0B3
S31500005408A1686B1C8B4206F1040614D21D46D4E92A
S3150000541800035B5D82684B44CDE903370596C2B14C
S31500005428D0F80C8005AB04AA03A9C0470028E7D02A
S3150000543807B0BDE8F08F0BF1010BDDF80480E368D7
S31500005448AB441A6A9144CA45D2D8002007B0BDE8D1
S31500005458F08F06F063FB00BF70B5D0E9001291F833
S315000054683C3005468BB10024264652F8240038B154
S315000054780368DB6898476B6843F82460D5E900122F
S3150000548891F83C3001349C42EFD31046FFF7C8FE32
S31500005498284670BD10B58368044613B10322014639
S315000054A89847204610BD00BF2DE9F04F044685B049
S315000054B80E46FFF7B7FE002C5FD0E5688346EB6C17
S315000054C888464BB34FF0000904E0EB6C09F101097B
S315000054D84B4521D9216909B151F829102A6D33465E
S315000054E802EB491CDCF81C200191DCF81810204658
S315000054F80091DCF810704946B84782460028E4D087
